S01700004763634170706C69636174696F6E312E737265635B
S11300000C9434000C9467000C9446000C94460045
S11300100C9446000C9446000C9446000C94460044
S11300200C9446000C9446000C9446000C94460034
S11300300C9446000C9446000C94F1000C94460079
S11300400C9446000C9446000C9446000C94460014
S11300500C9446000C9446000C9446000C94460004
S11300600C9446000C94460011241FBECFEFD8E038
S1130070DEBFCDBF21E0A0E0B1E001C01D92A530FC
S1130080B207E1F70E94D0000C944C010C940000DC
S1130090CF93DF93CDB7DEB78CE790E020E6FC0189
S11300A020838AE790E024E8FC0120838BE790E03A
S11300B02BE730E0F90120812560FC0120838EE7E5
S11300C090E0FC0110820000DF91CF9108951F920F
S11300D00F9200905F000F9211242F933F938F9300
S11300E09F93EF93FF93CF93DF93CDB7DEB785E272
S11300F090E025E230E0F901308120E22327FC0181
S1130100208389E690E0FC018081882F90E0817053
S11301109927892BB9F086E490E0FC01108285E4EC
S113012090E025E430E0F90120812460FC01208383
S113013089E690E029E630E0F90120812E7FFC0178
S113014020831FC085E490E025E430E0F90120819C
S11301502B7FFC01208386E490E0FC018081882FC2
S113016090E0909301018093000181E0809302016B
S113017089E690E029E630E0F90120812160FC0164
S113018020830000DF91CF91FF91EF919F918F9198
S11301903F912F910F9000925F000F901F90189540
S11301A0CF93DF93CDB7DEB784E290E02FEFFC016D
S11301B020838AE290E02AE230E0F90120812B7F5B
S11301C0FC0120830E9448000E941B01789484E271
S11301D090E024E230E0F90120812460FC012083D6
S11301E0FFCF1F920F9200905F000F9211248F9304
S11301F09F93CF93DF93CDB7DEB7809103019091A6
S113020004010196909304018093030180910301FA
S1130210909104010A9720F01092040110920301B6
S11302200000DF91CF919F918F910F9000925F001A
S11302300F901F901895CF93DF93CDB7DEB784E26C
S113024090E024E230E0F90120812460FC01208365
S113025080E890E020E830E0F90120812061FC0191
S1130260208381E890E021E830E0F90120812960D1
S1130270FC01208388E890E027EC30E0FC01318326
S113028020838AE890E027EC30E0FC01318320836E
S10F02900000DF91CF910895F894FFCF97
S9030000FC
